{
  "_format": "hh-sol-artifact-1",
  "contractName": "ARDImplementationV1",
  "sourceName": "contracts/ARDImplementationV1.sol",
  "abi": [
    {
      "inputs": [],
      "stateMutability": "nonpayable",
      "type": "constructor"
    },
    {
      "anonymous": false,
      "inputs": [
        {
          "indexed": true,
          "internalType": "address",
          "name": "addr",
          "type": "address"
        }
      ],
      "name": "AddressFrozen",
      "type": "event"
    },
    {
      "anonymous": false,
      "inputs": [
        {
          "indexed": true,
          "internalType": "address",
          "name": "addr",
          "type": "address"
        }
      ],
      "name": "AddressUnfrozen",
      "type": "event"
    },
    {
      "anonymous": false,
      "inputs": [
        {
          "indexed": true,
          "internalType": "address",
          "name": "owner",
          "type": "address"
        },
        {
          "indexed": true,
          "internalType": "address",
          "name": "spender",
          "type": "address"
        },
        {
          "indexed": false,
          "internalType": "uint256",
          "name": "value",
          "type": "uint256"
        }
      ],
      "name": "Approval",
      "type": "event"
    },
    {
      "anonymous": false,
      "inputs": [
        {
          "indexed": true,
          "internalType": "address",
          "name": "oldAssetProtectionRole",
          "type": "address"
        },
        {
          "indexed": true,
          "internalType": "address",
          "name": "newAssetProtectionRole",
          "type": "address"
        }
      ],
      "name": "AssetProtectionRoleSet",
      "type": "event"
    },
    {
      "anonymous": false,
      "inputs": [
        {
          "indexed": true,
          "internalType": "address",
          "name": "addr",
          "type": "address"
        }
      ],
      "name": "FrozenAddressWiped",
      "type": "event"
    },
    {
      "anonymous": false,
      "inputs": [
        {
          "indexed": true,
          "internalType": "address",
          "name": "previousOwner",
          "type": "address"
        },
        {
          "indexed": true,
          "internalType": "address",
          "name": "newOwner",
          "type": "address"
        }
      ],
      "name": "OwnershipTransferred",
      "type": "event"
    },
    {
      "anonymous": false,
      "inputs": [
        {
          "indexed": false,
          "internalType": "address",
          "name": "account",
          "type": "address"
        }
      ],
      "name": "Paused",
      "type": "event"
    },
    {
      "anonymous": false,
      "inputs": [
        {
          "indexed": true,
          "internalType": "bytes32",
          "name": "role",
          "type": "bytes32"
        },
        {
          "indexed": true,
          "internalType": "bytes32",
          "name": "previousAdminRole",
          "type": "bytes32"
        },
        {
          "indexed": true,
          "internalType": "bytes32",
          "name": "newAdminRole",
          "type": "bytes32"
        }
      ],
      "name": "RoleAdminChanged",
      "type": "event"
    },
    {
      "anonymous": false,
      "inputs": [
        {
          "indexed": true,
          "internalType": "bytes32",
          "name": "role",
          "type": "bytes32"
        },
        {
          "indexed": true,
          "internalType": "address",
          "name": "account",
          "type": "address"
        },
        {
          "indexed": true,
          "internalType": "address",
          "name": "sender",
          "type": "address"
        }
      ],
      "name": "RoleGranted",
      "type": "event"
    },
    {
      "anonymous": false,
      "inputs": [
        {
          "indexed": true,
          "internalType": "bytes32",
          "name": "role",
          "type": "bytes32"
        },
        {
          "indexed": true,
          "internalType": "address",
          "name": "account",
          "type": "address"
        },
        {
          "indexed": true,
          "internalType": "address",
          "name": "sender",
          "type": "address"
        }
      ],
      "name": "RoleRevoked",
      "type": "event"
    },
    {
      "anonymous": false,
      "inputs": [
        {
          "indexed": true,
          "internalType": "address",
          "name": "oldSupplyController",
          "type": "address"
        },
        {
          "indexed": true,
          "internalType": "address",
          "name": "newSupplyController",
          "type": "address"
        }
      ],
      "name": "SupplyControllerSet",
      "type": "event"
    },
    {
      "anonymous": false,
      "inputs": [
        {
          "indexed": true,
          "internalType": "address",
          "name": "from",
          "type": "address"
        },
        {
          "indexed": false,
          "internalType": "uint256",
          "name": "value",
          "type": "uint256"
        }
      ],
      "name": "SupplyDecreased",
      "type": "event"
    },
    {
      "anonymous": false,
      "inputs": [
        {
          "indexed": true,
          "internalType": "address",
          "name": "to",
          "type": "address"
        },
        {
          "indexed": false,
          "internalType": "uint256",
          "name": "value",
          "type": "uint256"
        }
      ],
      "name": "SupplyIncreased",
      "type": "event"
    },
    {
      "anonymous": false,
      "inputs": [
        {
          "indexed": true,
          "internalType": "address",
          "name": "from",
          "type": "address"
        },
        {
          "indexed": true,
          "internalType": "address",
          "name": "to",
          "type": "address"
        },
        {
          "indexed": false,
          "internalType": "uint256",
          "name": "value",
          "type": "uint256"
        }
      ],
      "name": "Transfer",
      "type": "event"
    },
    {
      "anonymous": false,
      "inputs": [
        {
          "indexed": false,
          "internalType": "address",
          "name": "account",
          "type": "address"
        }
      ],
      "name": "Unpaused",
      "type": "event"
    },
    {
      "inputs": [],
      "name": "ASSET_PROTECTION_ROLE",
      "outputs": [
        {
          "internalType": "bytes32",
          "name": "",
          "type": "bytes32"
        }
      ],
      "stateMutability": "view",
      "type": "function"
    },
    {
      "inputs": [],
      "name": "BURNER_ROLE",
      "outputs": [
        {
          "internalType": "bytes32",
          "name": "",
          "type": "bytes32"
        }
      ],
      "stateMutability": "view",
      "type": "function"
    },
    {
      "inputs": [],
      "name": "DEFAULT_ADMIN_ROLE",
      "outputs": [
        {
          "internalType": "bytes32",
          "name": "",
          "type": "bytes32"
        }
      ],
      "stateMutability": "view",
      "type": "function"
    },
    {
      "inputs": [],
      "name": "MINTER_ROLE",
      "outputs": [
        {
          "internalType": "bytes32",
          "name": "",
          "type": "bytes32"
        }
      ],
      "stateMutability": "view",
      "type": "function"
    },
    {
      "inputs": [],
      "name": "SUPPLY_CONTROLLER_ROLE",
      "outputs": [
        {
          "internalType": "bytes32",
          "name": "",
          "type": "bytes32"
        }
      ],
      "stateMutability": "view",
      "type": "function"
    },
    {
      "inputs": [
        {
          "internalType": "address",
          "name": "owner",
          "type": "address"
        },
        {
          "internalType": "address",
          "name": "spender",
          "type": "address"
        }
      ],
      "name": "allowance",
      "outputs": [
        {
          "internalType": "uint256",
          "name": "",
          "type": "uint256"
        }
      ],
      "stateMutability": "view",
      "type": "function"
    },
    {
      "inputs": [
        {
          "internalType": "address",
          "name": "spender",
          "type": "address"
        },
        {
          "internalType": "uint256",
          "name": "amount",
          "type": "uint256"
        }
      ],
      "name": "approve",
      "outputs": [
        {
          "internalType": "bool",
          "name": "",
          "type": "bool"
        }
      ],
      "stateMutability": "nonpayable",
      "type": "function"
    },
    {
      "inputs": [
        {
          "internalType": "address",
          "name": "account",
          "type": "address"
        }
      ],
      "name": "balanceOf",
      "outputs": [
        {
          "internalType": "uint256",
          "name": "",
          "type": "uint256"
        }
      ],
      "stateMutability": "view",
      "type": "function"
    },
    {
      "inputs": [
        {
          "internalType": "address",
          "name": "account",
          "type": "address"
        },
        {
          "internalType": "uint256",
          "name": "amount",
          "type": "uint256"
        }
      ],
      "name": "burn",
      "outputs": [],
      "stateMutability": "nonpayable",
      "type": "function"
    },
    {
      "inputs": [],
      "name": "decimals",
      "outputs": [
        {
          "internalType": "uint8",
          "name": "",
          "type": "uint8"
        }
      ],
      "stateMutability": "view",
      "type": "function"
    },
    {
      "inputs": [
        {
          "internalType": "address",
          "name": "spender",
          "type": "address"
        },
        {
          "internalType": "uint256",
          "name": "subtractedValue",
          "type": "uint256"
        }
      ],
      "name": "decreaseAllowance",
      "outputs": [
        {
          "internalType": "bool",
          "name": "",
          "type": "bool"
        }
      ],
      "stateMutability": "nonpayable",
      "type": "function"
    },
    {
      "inputs": [
        {
          "internalType": "uint256",
          "name": "_value",
          "type": "uint256"
        }
      ],
      "name": "decreaseSupply",
      "outputs": [
        {
          "internalType": "bool",
          "name": "",
          "type": "bool"
        }
      ],
      "stateMutability": "nonpayable",
      "type": "function"
    },
    {
      "inputs": [
        {
          "internalType": "address",
          "name": "_addr",
          "type": "address"
        }
      ],
      "name": "freeze",
      "outputs": [],
      "stateMutability": "nonpayable",
      "type": "function"
    },
    {
      "inputs": [
        {
          "internalType": "bytes32",
          "name": "role",
          "type": "bytes32"
        }
      ],
      "name": "getRoleAdmin",
      "outputs": [
        {
          "internalType": "bytes32",
          "name": "",
          "type": "bytes32"
        }
      ],
      "stateMutability": "view",
      "type": "function"
    },
    {
      "inputs": [
        {
          "internalType": "bytes32",
          "name": "role",
          "type": "bytes32"
        },
        {
          "internalType": "address",
          "name": "account",
          "type": "address"
        }
      ],
      "name": "grantRole",
      "outputs": [],
      "stateMutability": "nonpayable",
      "type": "function"
    },
    {
      "inputs": [
        {
          "internalType": "bytes32",
          "name": "role",
          "type": "bytes32"
        },
        {
          "internalType": "address",
          "name": "account",
          "type": "address"
        }
      ],
      "name": "hasRole",
      "outputs": [
        {
          "internalType": "bool",
          "name": "",
          "type": "bool"
        }
      ],
      "stateMutability": "view",
      "type": "function"
    },
    {
      "inputs": [
        {
          "internalType": "address",
          "name": "spender",
          "type": "address"
        },
        {
          "internalType": "uint256",
          "name": "addedValue",
          "type": "uint256"
        }
      ],
      "name": "increaseAllowance",
      "outputs": [
        {
          "internalType": "bool",
          "name": "",
          "type": "bool"
        }
      ],
      "stateMutability": "nonpayable",
      "type": "function"
    },
    {
      "inputs": [
        {
          "internalType": "uint256",
          "name": "_value",
          "type": "uint256"
        }
      ],
      "name": "increaseSupply",
      "outputs": [
        {
          "internalType": "bool",
          "name": "",
          "type": "bool"
        }
      ],
      "stateMutability": "nonpayable",
      "type": "function"
    },
    {
      "inputs": [
        {
          "internalType": "string",
          "name": "name_",
          "type": "string"
        },
        {
          "internalType": "string",
          "name": "symbol_",
          "type": "string"
        }
      ],
      "name": "initialize",
      "outputs": [],
      "stateMutability": "nonpayable",
      "type": "function"
    },
    {
      "inputs": [
        {
          "internalType": "address",
          "name": "_addr",
          "type": "address"
        }
      ],
      "name": "isAssetProtection",
      "outputs": [
        {
          "internalType": "bool",
          "name": "",
          "type": "bool"
        }
      ],
      "stateMutability": "view",
      "type": "function"
    },
    {
      "inputs": [
        {
          "internalType": "address",
          "name": "_addr",
          "type": "address"
        }
      ],
      "name": "isBurner",
      "outputs": [
        {
          "internalType": "bool",
          "name": "",
          "type": "bool"
        }
      ],
      "stateMutability": "view",
      "type": "function"
    },
    {
      "inputs": [
        {
          "internalType": "address",
          "name": "_addr",
          "type": "address"
        }
      ],
      "name": "isFrozen",
      "outputs": [
        {
          "internalType": "bool",
          "name": "",
          "type": "bool"
        }
      ],
      "stateMutability": "view",
      "type": "function"
    },
    {
      "inputs": [
        {
          "internalType": "address",
          "name": "_addr",
          "type": "address"
        }
      ],
      "name": "isMinter",
      "outputs": [
        {
          "internalType": "bool",
          "name": "",
          "type": "bool"
        }
      ],
      "stateMutability": "view",
      "type": "function"
    },
    {
      "inputs": [
        {
          "internalType": "address",
          "name": "_addr",
          "type": "address"
        }
      ],
      "name": "isRoleAdmin",
      "outputs": [
        {
          "internalType": "bool",
          "name": "",
          "type": "bool"
        }
      ],
      "stateMutability": "view",
      "type": "function"
    },
    {
      "inputs": [
        {
          "internalType": "address",
          "name": "_addr",
          "type": "address"
        }
      ],
      "name": "isSupplyController",
      "outputs": [
        {
          "internalType": "bool",
          "name": "",
          "type": "bool"
        }
      ],
      "stateMutability": "view",
      "type": "function"
    },
    {
      "inputs": [
        {
          "internalType": "address",
          "name": "account",
          "type": "address"
        },
        {
          "internalType": "uint256",
          "name": "amount",
          "type": "uint256"
        }
      ],
      "name": "mint",
      "outputs": [],
      "stateMutability": "nonpayable",
      "type": "function"
    },
    {
      "inputs": [],
      "name": "name",
      "outputs": [
        {
          "internalType": "string",
          "name": "",
          "type": "string"
        }
      ],
      "stateMutability": "view",
      "type": "function"
    },
    {
      "inputs": [],
      "name": "owner",
      "outputs": [
        {
          "internalType": "address",
          "name": "",
          "type": "address"
        }
      ],
      "stateMutability": "view",
      "type": "function"
    },
    {
      "inputs": [],
      "name": "pause",
      "outputs": [],
      "stateMutability": "nonpayable",
      "type": "function"
    },
    {
      "inputs": [],
      "name": "paused",
      "outputs": [
        {
          "internalType": "bool",
          "name": "",
          "type": "bool"
        }
      ],
      "stateMutability": "view",
      "type": "function"
    },
    {
      "inputs": [],
      "name": "renounceOwnership",
      "outputs": [],
      "stateMutability": "nonpayable",
      "type": "function"
    },
    {
      "inputs": [
        {
          "internalType": "bytes32",
          "name": "role",
          "type": "bytes32"
        },
        {
          "internalType": "address",
          "name": "account",
          "type": "address"
        }
      ],
      "name": "renounceRole",
      "outputs": [],
      "stateMutability": "nonpayable",
      "type": "function"
    },
    {
      "inputs": [
        {
          "internalType": "address",
          "name": "_addr",
          "type": "address"
        }
      ],
      "name": "revokeAdminRole",
      "outputs": [],
      "stateMutability": "nonpayable",
      "type": "function"
    },
    {
      "inputs": [
        {
          "internalType": "address",
          "name": "_addr",
          "type": "address"
        }
      ],
      "name": "revokeAssetProtectionRole",
      "outputs": [],
      "stateMutability": "nonpayable",
      "type": "function"
    },
    {
      "inputs": [
        {
          "internalType": "address",
          "name": "_addr",
          "type": "address"
        }
      ],
      "name": "revokeBurnerRole",
      "outputs": [],
      "stateMutability": "nonpayable",
      "type": "function"
    },
    {
      "inputs": [
        {
          "internalType": "address",
          "name": "_addr",
          "type": "address"
        }
      ],
      "name": "revokeMinterRole",
      "outputs": [],
      "stateMutability": "nonpayable",
      "type": "function"
    },
    {
      "inputs": [
        {
          "internalType": "bytes32",
          "name": "role",
          "type": "bytes32"
        },
        {
          "internalType": "address",
          "name": "account",
          "type": "address"
        }
      ],
      "name": "revokeRole",
      "outputs": [],
      "stateMutability": "nonpayable",
      "type": "function"
    },
    {
      "inputs": [
        {
          "internalType": "address",
          "name": "_addr",
          "type": "address"
        }
      ],
      "name": "revokeSupplyControllerRole",
      "outputs": [],
      "stateMutability": "nonpayable",
      "type": "function"
    },
    {
      "inputs": [
        {
          "internalType": "address",
          "name": "_addr",
          "type": "address"
        }
      ],
      "name": "setAdminRole",
      "outputs": [],
      "stateMutability": "nonpayable",
      "type": "function"
    },
    {
      "inputs": [
        {
          "internalType": "address",
          "name": "_addr",
          "type": "address"
        }
      ],
      "name": "setAssetProtectionRole",
      "outputs": [],
      "stateMutability": "nonpayable",
      "type": "function"
    },
    {
      "inputs": [
        {
          "internalType": "address",
          "name": "_addr",
          "type": "address"
        }
      ],
      "name": "setBurnerRole",
      "outputs": [],
      "stateMutability": "nonpayable",
      "type": "function"
    },
    {
      "inputs": [
        {
          "internalType": "address",
          "name": "_addr",
          "type": "address"
        }
      ],
      "name": "setMinterRole",
      "outputs": [],
      "stateMutability": "nonpayable",
      "type": "function"
    },
    {
      "inputs": [
        {
          "internalType": "address",
          "name": "_addr",
          "type": "address"
        }
      ],
      "name": "setSupplyControllerRole",
      "outputs": [],
      "stateMutability": "nonpayable",
      "type": "function"
    },
    {
      "inputs": [
        {
          "internalType": "bytes4",
          "name": "interfaceId",
          "type": "bytes4"
        }
      ],
      "name": "supportsInterface",
      "outputs": [
        {
          "internalType": "bool",
          "name": "",
          "type": "bool"
        }
      ],
      "stateMutability": "view",
      "type": "function"
    },
    {
      "inputs": [],
      "name": "symbol",
      "outputs": [
        {
          "internalType": "string",
          "name": "",
          "type": "string"
        }
      ],
      "stateMutability": "view",
      "type": "function"
    },
    {
      "inputs": [],
      "name": "totalSupply",
      "outputs": [
        {
          "internalType": "uint256",
          "name": "",
          "type": "uint256"
        }
      ],
      "stateMutability": "view",
      "type": "function"
    },
    {
      "inputs": [
        {
          "internalType": "address",
          "name": "recipient",
          "type": "address"
        },
        {
          "internalType": "uint256",
          "name": "amount",
          "type": "uint256"
        }
      ],
      "name": "transfer",
      "outputs": [
        {
          "internalType": "bool",
          "name": "",
          "type": "bool"
        }
      ],
      "stateMutability": "nonpayable",
      "type": "function"
    },
    {
      "inputs": [
        {
          "internalType": "address",
          "name": "sender",
          "type": "address"
        },
        {
          "internalType": "address",
          "name": "recipient",
          "type": "address"
        },
        {
          "internalType": "uint256",
          "name": "amount",
          "type": "uint256"
        }
      ],
      "name": "transferFrom",
      "outputs": [
        {
          "internalType": "bool",
          "name": "",
          "type": "bool"
        }
      ],
      "stateMutability": "nonpayable",
      "type": "function"
    },
    {
      "inputs": [
        {
          "internalType": "address",
          "name": "newOwner",
          "type": "address"
        }
      ],
      "name": "transferOwnership",
      "outputs": [],
      "stateMutability": "nonpayable",
      "type": "function"
    },
    {
      "inputs": [
        {
          "internalType": "address",
          "name": "_addr",
          "type": "address"
        }
      ],
      "name": "unfreeze",
      "outputs": [],
      "stateMutability": "nonpayable",
      "type": "function"
    },
    {
      "inputs": [],
      "name": "unpause",
      "outputs": [],
      "stateMutability": "nonpayable",
      "type": "function"
    },
    {
      "inputs": [
        {
          "internalType": "address",
          "name": "_addr",
          "type": "address"
        }
      ],
      "name": "wipeFrozenAddress",
      "outputs": [],
      "stateMutability": "nonpayable",
      "type": "function"
    }
  ],
  "bytecode": "0x60806040523480156200001157600080fd5b50620000226200002860201b60201c565b620001e4565b62000038620000e060201b60201c565b156200007b576040517f08c379a0000000000000000000000000000000000000000000000000000000008152600401620000729062000154565b60405180910390fd5b600160fb60006101000a81548160ff0219169083151502179055507f62e78cea01bee320cd4e420270b5ea74000d11b0c9f74754ebdbfc544b05a258620000c7620000f760201b60201c565b604051620000d6919062000137565b60405180910390a1565b600060fb60009054906101000a900460ff16905090565b600033905090565b6200010a8162000187565b82525050565b60006200011f60108362000176565b91506200012c82620001bb565b602082019050919050565b60006020820190506200014e6000830184620000ff565b92915050565b600060208201905081810360008301526200016f8162000110565b9050919050565b600082825260208201905092915050565b600062000194826200019b565b9050919050565b600073ffffffffffffffffffffffffffffffffffffffff82169050919050565b7f5061757361626c653a2070617573656400000000000000000000000000000000600082015250565b61559880620001f46000396000f3fe608060405234801561001057600080fd5b506004361061030c5760003560e01c80638c6f700a1161019d578063a9059cbb116100e9578063d761b9b1116100a2578063e58398361161007c578063e583983614610983578063e87d75f3146109b3578063f2fde38b146109d1578063fed62da5146109ed5761030c565b8063d761b9b114610919578063dd62ed3e14610937578063e2f72f03146109675761030c565b8063a9059cbb14610833578063aa271e1a14610863578063b921e16314610893578063c3052ffc146108c3578063d5391393146108df578063d547741f146108fd5761030c565b806395d89b41116101565780639a19c7b0116101305780639a19c7b0146107ad5780639dc29fac146107c9578063a217fddf146107e5578063a457c2d7146108035761030c565b806395d89b411461072f578063984f6db21461074d57806398e52f9a1461077d5761030c565b80638c6f700a146106715780638ceed9cb1461068d5780638d1fdf2f146106a95780638da5cb5b146106c557806391d14854146106e3578063945d1229146107135761030c565b80633f4ba83a1161025c578063509d12c51161021557806369e2f0fb116101ef57806369e2f0fb1461061157806370a082311461062d578063715018a61461065d5780638456cb59146106675761030c565b8063509d12c5146105935780635c975abb146105c35780636062a6c5146105e15761030c565b80633f4ba83a146104e957806340c10f19146104f35780634334614a1461050f57806345c8b1a61461053f5780634adc7cfd1461055b5780634cd88b76146105775761030c565b806323b872dd116102c95780632f2ff15d116102a35780632f2ff15d14610463578063313ce5671461047f57806336568abe1461049d57806339509351146104b95761030c565b806323b872dd146103e5578063248a9ca314610415578063282c51f3146104455761030c565b806301ffc9a714610311578063034416511461034157806306fdde031461035d578063076357b51461037b578063095ea7b31461039757806318160ddd146103c7575b600080fd5b61032b60048036038101906103269190613e0d565b610a09565b60405161033891906144e4565b60405180910390f35b61035b60048036038101906103569190613cb8565b610a83565b005b610365610ab0565b604051610372919061451a565b60405180910390f35b61039560048036038101906103909190613cb8565b610b42565b005b6103b160048036038101906103ac9190613d6c565b610b6f565b6040516103be91906144e4565b60405180910390f35b6103cf610cf8565b6040516103dc919061499c565b60405180910390f35b6103ff60048036038101906103fa9190613d1d565b610d02565b60405161040c91906144e4565b60405180910390f35b61042f600480360381019061042a9190613da8565b610dfa565b60405161043c91906144ff565b60405180910390f35b61044d610e1a565b60405161045a91906144ff565b60405180910390f35b61047d60048036038101906104789190613dd1565b610e3e565b005b610487610f1f565b60405161049491906149b7565b60405180910390f35b6104b760048036038101906104b29190613dd1565b610f37565b005b6104d360048036038101906104ce9190613d6c565b610fba565b6040516104e091906144e4565b60405180910390f35b6104f1611066565b005b61050d60048036038101906105089190613d6c565b6110ec565b005b61052960048036038101906105249190613cb8565b61116a565b60405161053691906144e4565b60405180910390f35b61055960048036038101906105549190613cb8565b61119d565b005b61057560048036038101906105709190613cb8565b611381565b005b610591600480360381019061058c9190613e36565b611391565b005b6105ad60048036038101906105a89190613cb8565b61163b565b6040516105ba91906144e4565b60405180910390f35b6105cb61166e565b6040516105d891906144e4565b60405180910390f35b6105fb60048036038101906105f69190613cb8565b611685565b60405161060891906144e4565b60405180910390f35b61062b60048036038101906106269190613cb8565b61169b565b005b61064760048036038101906106429190613cb8565b6116c8565b604051610654919061499c565b60405180910390f35b610665611711565b005b61066f611799565b005b61068b60048036038101906106869190613cb8565b61181f565b005b6106a760048036038101906106a29190613cb8565b61184c565b005b6106c360048036038101906106be9190613cb8565b611879565b005b6106cd611b4a565b6040516106da91906144c9565b60405180910390f35b6106fd60048036038101906106f89190613dd1565b611b74565b60405161070a91906144e4565b60405180910390f35b61072d60048036038101906107289190613cb8565b611bdf565b005b610737611c0c565b604051610744919061451a565b60405180910390f35b61076760048036038101906107629190613cb8565b611c9e565b60405161077491906144e4565b60405180910390f35b61079760048036038101906107929190613ea2565b611cd1565b6040516107a491906144e4565b60405180910390f35b6107c760048036038101906107c29190613cb8565b611daf565b005b6107e360048036038101906107de9190613d6c565b611dbf565b005b6107ed611e3d565b6040516107fa91906144ff565b60405180910390f35b61081d60048036038101906108189190613d6c565b611e44565b60405161082a91906144e4565b60405180910390f35b61084d60048036038101906108489190613d6c565b611f2f565b60405161085a91906144e4565b60405180910390f35b61087d60048036038101906108789190613cb8565b611f4d565b60405161088a91906144e4565b60405180910390f35b6108ad60048036038101906108a89190613ea2565b611f80565b6040516108ba91906144e4565b60405180910390f35b6108dd60048036038101906108d89190613cb8565b61200c565b005b6108e7612039565b6040516108f491906144ff565b60405180910390f35b61091760048036038101906109129190613dd1565b61205d565b005b6109216120ce565b60405161092e91906144ff565b60405180910390f35b610951600480360381019061094c9190613ce1565b6120f2565b60405161095e919061499c565b60405180910390f35b610981600480360381019061097c9190613cb8565b612179565b005b61099d60048036038101906109989190613cb8565b6123ce565b6040516109aa91906144e4565b60405180910390f35b6109bb612425565b6040516109c891906144ff565b60405180910390f35b6109eb60048036038101906109e69190613cb8565b612449565b005b610a076004803603810190610a029190613cb8565b612541565b005b60007f7965db0b000000000000000000000000000000000000000000000000000000007bffffffffffffffffffffffffffffffffffffffffffffffffffffffff1916827bffffffffffffffffffffffffffffffffffffffffffffffffffffffff19161480610a7c5750610a7b8261256e565b5b9050919050565b610aad7fe3e4f9d7569515307c0cdec302af069a93c9e33f325269bac70e6e22465a97968261205d565b50565b606060368054610abf90614c2a565b80601f0160208091040260200160405190810160405280929190818152602001828054610aeb90614c2a565b8015610b385780601f10610b0d57610100808354040283529160200191610b38565b820191906000526020600020905b815481529060010190602001808311610b1b57829003601f168201915b5050505050905090565b610b6c7f9c00d6f280439b1dfa4da90321e0a3f3c2e87280f4d07fea9fa43ff2cf02df2b82610e3e565b50565b6000610b7961166e565b15610bb9576040517f08c379a0000000000000000000000000000000000000000000000000000000008152600401610bb09061463c565b60405180910390fd5b6101606000610bc66125d8565b73ffffffffffffffffffffffffffffffffffffffff1673ffffffffffffffffffffffffffffffffffffffff16815260200190815260200160002060009054906101000a900460ff1615610c4e576040517f08c379a0000000000000000000000000000000000000000000000000000000008152600401610c459061475c565b60405180910390fd5b61016060008473ffffffffffffffffffffffffffffffffffffffff1673ffffffffffffffffffffffffffffffffffffffff16815260200190815260200160002060009054906101000a900460ff1615610cdc576040517f08c379a0000000000000000000000000000000000000000000000000000000008152600401610cd3906148fc565b60405180910390fd5b610cee610ce76125d8565b84846125e0565b6001905092915050565b6000603554905090565b6000610d0f8484846127ab565b6000603460008673ffffffffffffffffffffffffffffffffffffffff1673ffffffffffffffffffffffffffffffffffffffff1681526020019081526020016000206000610d5a6125d8565b73ffffffffffffffffffffffffffffffffffffffff1673ffffffffffffffffffffffffffffffffffffffff16815260200190815260200160002054905082811015610dda576040517f08c379a0000000000000000000000000000000000000000000000000000000008152600401610dd1906147fc565b60405180910390fd5b610dee85610de66125d8565b8584036125e0565b60019150509392505050565b600060c96000838152602001908152602001600020600101549050919050565b7f3c11d16cbaffd01df69ce1c404f6340ee057498f5f00246190ea54220576a84881565b610e4661166e565b15610e86576040517f08c379a0000000000000000000000000000000000000000000000000000000008152600401610e7d9061463c565b60405180910390fd5b610e8f82610dfa565b610ea081610e9b6125d8565b612a2f565b600073ffffffffffffffffffffffffffffffffffffffff168273ffffffffffffffffffffffffffffffffffffffff161415610f10576040517f08c379a0000000000000000000000000000000000000000000000000000000008152600401610f079061477c565b60405180910390fd5b610f1a8383612acc565b505050565b600061015f60009054906101000a900460ff16905090565b610f3f6125d8565b73ffffffffffffffffffffffffffffffffffffffff168173ffffffffffffffffffffffffffffffffffffffff1614610fac576040517f08c379a0000000000000000000000000000000000000000000000000000000008152600401610fa39061495c565b60405180910390fd5b610fb68282612bad565b5050565b600061105c610fc76125d8565b848460346000610fd56125d8565b73ffffffffffffffffffffffffffffffffffffffff1673ffffffffffffffffffffffffffffffffffffffff16815260200190815260200160002060008873ffffffffffffffffffffffffffffffffffffffff1673ffffffffffffffffffffffffffffffffffffffff168152602001908152602001600020546110579190614a4f565b6125e0565b6001905092915050565b61106e6125d8565b73ffffffffffffffffffffffffffffffffffffffff1661108c611b4a565b73ffffffffffffffffffffffffffffffffffffffff16146110e2576040517f08c379a00000000000000000000000000000000000000000000000000000000081526004016110d99061481c565b60405180910390fd5b6110ea612c8f565b565b61111d7f9f2df0fed2c77648de5860a4cc508cd0818c85b8b8a1ab4ceeef8d981c8956a66111186125d8565b611b74565b61115c576040517f08c379a0000000000000000000000000000000000000000000000000000000008152600401611153906147bc565b60405180910390fd5b6111668282612d31565b5050565b60006111967f3c11d16cbaffd01df69ce1c404f6340ee057498f5f00246190ea54220576a84883611b74565b9050919050565b6111a561166e565b156111e5576040517f08c379a00000000000000000000000000000000000000000000000000000000081526004016111dc9061463c565b60405180910390fd5b6112167fe3e4f9d7569515307c0cdec302af069a93c9e33f325269bac70e6e22465a97966112116125d8565b611b74565b611255576040517f08c379a000000000000000000000000000000000000000000000000000000000815260040161124c9061469c565b60405180910390fd5b61016060008273ffffffffffffffffffffffffffffffffffffffff1673ffffffffffffffffffffffffffffffffffffffff16815260200190815260200160002060009054906101000a900460ff166112e2576040517f08c379a00000000000000000000000000000000000000000000000000000000081526004016112d99061479c565b60405180910390fd5b600061016060008373ffffffffffffffffffffffffffffffffffffffff1673ffffffffffffffffffffffffffffffffffffffff16815260200190815260200160002060006101000a81548160ff0219169083151502179055508073ffffffffffffffffffffffffffffffffffffffff167fc3776b472ebf54114339eec9e4dc924e7ce307a97f5c1ee72b6d474e6e5e8b7c60405160405180910390a250565b61138e6000801b82610e3e565b50565b600060019054906101000a900460ff166113b95760008054906101000a900460ff16156113c2565b6113c1612e92565b5b611401576040517f08c379a00000000000000000000000000000000000000000000000000000000081526004016113f89061471c565b60405180910390fd5b60008060019054906101000a900460ff161590508015611451576001600060016101000a81548160ff02191690831515021790555060016000806101000a81548160ff0219169083151502179055505b611459612ea3565b6114638383612f04565b6114907f9f2df0fed2c77648de5860a4cc508cd0818c85b8b8a1ab4ceeef8d981c8956a66000801b612f69565b6114bd7f3c11d16cbaffd01df69ce1c404f6340ee057498f5f00246190ea54220576a8486000801b612f69565b6114ea7fe3e4f9d7569515307c0cdec302af069a93c9e33f325269bac70e6e22465a97966000801b612f69565b6115177f9c00d6f280439b1dfa4da90321e0a3f3c2e87280f4d07fea9fa43ff2cf02df2b6000801b612f69565b61152b6000801b6115266125d8565b612fc5565b61155c7f9f2df0fed2c77648de5860a4cc508cd0818c85b8b8a1ab4ceeef8d981c8956a66115576125d8565b612fc5565b61158d7f3c11d16cbaffd01df69ce1c404f6340ee057498f5f00246190ea54220576a8486115886125d8565b612fc5565b6115be7fe3e4f9d7569515307c0cdec302af069a93c9e33f325269bac70e6e22465a97966115b96125d8565b612fc5565b6115ef7f9c00d6f280439b1dfa4da90321e0a3f3c2e87280f4d07fea9fa43ff2cf02df2b6115ea6125d8565b612fc5565b600861015f60006101000a81548160ff021916908360ff16021790555060006101618190555080156116365760008060016101000a81548160ff0219169083151502179055505b505050565b60006116677f9c00d6f280439b1dfa4da90321e0a3f3c2e87280f4d07fea9fa43ff2cf02df2b83611b74565b9050919050565b600060fb60009054906101000a900460ff16905090565b60006116946000801b83611b74565b9050919050565b6116c57f9f2df0fed2c77648de5860a4cc508cd0818c85b8b8a1ab4ceeef8d981c8956a68261205d565b50565b6000603360008373ffffffffffffffffffffffffffffffffffffffff1673ffffffffffffffffffffffffffffffffffffffff168152602001908152602001600020549050919050565b6117196125d8565b73ffffffffffffffffffffffffffffffffffffffff16611737611b4a565b73ffffffffffffffffffffffffffffffffffffffff161461178d576040517f08c379a00000000000000000000000000000000000000000000000000000000081526004016117849061481c565b60405180910390fd5b6117976000612fd3565b565b6117a16125d8565b73ffffffffffffffffffffffffffffffffffffffff166117bf611b4a565b73ffffffffffffffffffffffffffffffffffffffff1614611815576040517f08c379a000000000000000000000000000000000000000000000000000000000815260040161180c9061481c565b60405180910390fd5b61181d613099565b565b6118497f9c00d6f280439b1dfa4da90321e0a3f3c2e87280f4d07fea9fa43ff2cf02df2b8261205d565b50565b6118767fe3e4f9d7569515307c0cdec302af069a93c9e33f325269bac70e6e22465a979682610e3e565b50565b61188161166e565b156118c1576040517f08c379a00000000000000000000000000000000000000000000000000000000081526004016118b89061463c565b60405180910390fd5b6118f27fe3e4f9d7569515307c0cdec302af069a93c9e33f325269bac70e6e22465a97966118ed6125d8565b611b74565b611931576040517f08c379a00000000000000000000000000000000000000000000000000000000081526004016119289061469c565b60405180910390fd5b611939611b4a565b73ffffffffffffffffffffffffffffffffffffffff168173ffffffffffffffffffffffffffffffffffffffff1614156119a7576040517f08c379a000000000000000000000000000000000000000000000000000000000815260040161199e9061473c565b60405180910390fd5b6119af6125d8565b73ffffffffffffffffffffffffffffffffffffffff168173ffffffffffffffffffffffffffffffffffffffff161415611a1d576040517f08c379a0000000000000000000000000000000000000000000000000000000008152600401611a14906147dc565b60405180910390fd5b61016060008273ffffffffffffffffffffffffffffffffffffffff1673ffffffffffffffffffffffffffffffffffffffff16815260200190815260200160002060009054906101000a900460ff1615611aab576040517f08c379a0000000000000000000000000000000000000000000000000000000008152600401611aa29061483c565b60405180910390fd5b600161016060008373ffffffffffffffffffffffffffffffffffffffff1673ffffffffffffffffffffffffffffffffffffffff16815260200190815260200160002060006101000a81548160ff0219169083151502179055508073ffffffffffffffffffffffffffffffffffffffff167f90811a8edd3b3c17eeaefffc17f639cc69145d41a359c9843994dc253820369060405160405180910390a250565b6000606560009054906101000a900473ffffffffffffffffffffffffffffffffffffffff16905090565b600060c9600084815260200190815260200160002060000160008373ffffffffffffffffffffffffffffffffffffffff1673ffffffffffffffffffffffffffffffffffffffff16815260200190815260200160002060009054906101000a900460ff16905092915050565b611c097f9f2df0fed2c77648de5860a4cc508cd0818c85b8b8a1ab4ceeef8d981c8956a682610e3e565b50565b606060378054611c1b90614c2a565b80601f0160208091040260200160405190810160405280929190818152602001828054611c4790614c2a565b8015611c945780601f10611c6957610100808354040283529160200191611c94565b820191906000526020600020905b815481529060010190602001808311611c7757829003601f168201915b5050505050905090565b6000611cca7fe3e4f9d7569515307c0cdec302af069a93c9e33f325269bac70e6e22465a979683611b74565b9050919050565b6000611d047f9c00d6f280439b1dfa4da90321e0a3f3c2e87280f4d07fea9fa43ff2cf02df2b611cff6125d8565b611b74565b611d43576040517f08c379a0000000000000000000000000000000000000000000000000000000008152600401611d3a9061467c565b60405180910390fd5b611d53611d4e6125d8565b6116c8565b821115611d95576040517f08c379a0000000000000000000000000000000000000000000000000000000008152600401611d8c9061489c565b60405180910390fd5b611da6611da06125d8565b8361313c565b60019050919050565b611dbc6000801b8261205d565b50565b611df07f3c11d16cbaffd01df69ce1c404f6340ee057498f5f00246190ea54220576a848611deb6125d8565b611b74565b611e2f576040517f08c379a0000000000000000000000000000000000000000000000000000000008152600401611e26906146dc565b60405180910390fd5b611e39828261313c565b5050565b6000801b81565b60008060346000611e536125d8565b73ffffffffffffffffffffffffffffffffffffffff1673ffffffffffffffffffffffffffffffffffffffff16815260200190815260200160002060008573ffffffffffffffffffffffffffffffffffffffff1673ffffffffffffffffffffffffffffffffffffffff16815260200190815260200160002054905082811015611f10576040517f08c379a0000000000000000000000000000000000000000000000000000000008152600401611f079061493c565b60405180910390fd5b611f24611f1b6125d8565b858584036125e0565b600191505092915050565b6000611f43611f3c6125d8565b84846127ab565b6001905092915050565b6000611f797f9f2df0fed2c77648de5860a4cc508cd0818c85b8b8a1ab4ceeef8d981c8956a683611b74565b9050919050565b6000611fb37f9c00d6f280439b1dfa4da90321e0a3f3c2e87280f4d07fea9fa43ff2cf02df2b611fae6125d8565b611b74565b611ff2576040517f08c379a0000000000000000000000000000000000000000000000000000000008152600401611fe99061467c565b60405180910390fd5b612003611ffd6125d8565b83612d31565b60019050919050565b6120367f3c11d16cbaffd01df69ce1c404f6340ee057498f5f00246190ea54220576a8488261205d565b50565b7f9f2df0fed2c77648de5860a4cc508cd0818c85b8b8a1ab4ceeef8d981c8956a681565b61206561166e565b156120a5576040517f08c379a000000000000000000000000000000000000000000000000000000000815260040161209c9061463c565b60405180910390fd5b6120ae82610dfa565b6120bf816120ba6125d8565b612a2f565b6120c98383612bad565b505050565b7fe3e4f9d7569515307c0cdec302af069a93c9e33f325269bac70e6e22465a979681565b6000603460008473ffffffffffffffffffffffffffffffffffffffff1673ffffffffffffffffffffffffffffffffffffffff16815260200190815260200160002060008373ffffffffffffffffffffffffffffffffffffffff1673ffffffffffffffffffffffffffffffffffffffff16815260200190815260200160002054905092915050565b61218161166e565b156121c1576040517f08c379a00000000000000000000000000000000000000000000000000000000081526004016121b89061463c565b60405180910390fd5b6121f27fe3e4f9d7569515307c0cdec302af069a93c9e33f325269bac70e6e22465a97966121ed6125d8565b611b74565b612231576040517f08c379a00000000000000000000000000000000000000000000000000000000081526004016122289061469c565b60405180910390fd5b61016060008273ffffffffffffffffffffffffffffffffffffffff1673ffffffffffffffffffffffffffffffffffffffff16815260200190815260200160002060009054906101000a900460ff166122be576040517f08c379a00000000000000000000000000000000000000000000000000000000081526004016122b5906145fc565b60405180910390fd5b60006122c9826116c8565b9050600061016060008473ffffffffffffffffffffffffffffffffffffffff1673ffffffffffffffffffffffffffffffffffffffff16815260200190815260200160002060006101000a81548160ff02191690831515021790555061232e828261313c565b600161016060008473ffffffffffffffffffffffffffffffffffffffff1673ffffffffffffffffffffffffffffffffffffffff16815260200190815260200160002060006101000a81548160ff0219169083151502179055508173ffffffffffffffffffffffffffffffffffffffff167ffc5960f1c5a5d2b60f031bf534af053b1bf7d9881989afaeb8b1d164db23aede60405160405180910390a25050565b600061016060008373ffffffffffffffffffffffffffffffffffffffff1673ffffffffffffffffffffffffffffffffffffffff16815260200190815260200160002060009054906101000a900460ff169050919050565b7f9c00d6f280439b1dfa4da90321e0a3f3c2e87280f4d07fea9fa43ff2cf02df2b81565b6124516125d8565b73ffffffffffffffffffffffffffffffffffffffff1661246f611b4a565b73ffffffffffffffffffffffffffffffffffffffff16146124c5576040517f08c379a00000000000000000000000000000000000000000000000000000000081526004016124bc9061481c565b60405180910390fd5b600073ffffffffffffffffffffffffffffffffffffffff168173ffffffffffffffffffffffffffffffffffffffff161415612535576040517f08c379a000000000000000000000000000000000000000000000000000000000815260040161252c906145dc565b60405180910390fd5b61253e81612fd3565b50565b61256b7f3c11d16cbaffd01df69ce1c404f6340ee057498f5f00246190ea54220576a84882610e3e565b50565b60007f01ffc9a7000000000000000000000000000000000000000000000000000000007bffffffffffffffffffffffffffffffffffffffffffffffffffffffff1916827bffffffffffffffffffffffffffffffffffffffffffffffffffffffff1916149050919050565b600033905090565b600073ffffffffffffffffffffffffffffffffffffffff168373ffffffffffffffffffffffffffffffffffffffff161415612650576040517f08c379a0000000000000000000000000000000000000000000000000000000008152600401612647906148bc565b60405180910390fd5b600073ffffffffffffffffffffffffffffffffffffffff168273ffffffffffffffffffffffffffffffffffffffff1614156126c0576040517f08c379a00000000000000000000000000000000000000000000000000000000081526004016126b79061461c565b60405180910390fd5b80603460008573ffffffffffffffffffffffffffffffffffffffff1673ffffffffffffffffffffffffffffffffffffffff16815260200190815260200160002060008473ffffffffffffffffffffffffffffffffffffffff1673ffffffffffffffffffffffffffffffffffffffff168152602001908152602001600020819055508173ffffffffffffffffffffffffffffffffffffffff168373ffffffffffffffffffffffffffffffffffffffff167f8c5be1e5ebec7d5bd14f71427d1e84f3dd0314c0f7b2291e5b200ac8c7c3b9258360405161279e919061499c565b60405180910390a3505050565b600073ffffffffffffffffffffffffffffffffffffffff168373ffffffffffffffffffffffffffffffffffffffff16141561281b576040517f08c379a00000000000000000000000000000000000000000000000000000000081526004016128129061487c565b60405180910390fd5b600073ffffffffffffffffffffffffffffffffffffffff168273ffffffffffffffffffffffffffffffffffffffff16141561288b576040517f08c379a00000000000000000000000000000000000000000000000000000000081526004016128829061455c565b60405180910390fd5b612896838383613315565b6000603360008573ffffffffffffffffffffffffffffffffffffffff1673ffffffffffffffffffffffffffffffffffffffff1681526020019081526020016000205490508181101561291d576040517f08c379a00000000000000000000000000000000000000000000000000000000081526004016129149061465c565b60405180910390fd5b818103603360008673ffffffffffffffffffffffffffffffffffffffff1673ffffffffffffffffffffffffffffffffffffffff1681526020019081526020016000208190555081603360008573ffffffffffffffffffffffffffffffffffffffff1673ffffffffffffffffffffffffffffffffffffffff16815260200190815260200160002060008282546129b29190614a4f565b925050819055508273ffffffffffffffffffffffffffffffffffffffff168473ffffffffffffffffffffffffffffffffffffffff167fddf252ad1be2c89b69c2b068fc378daa952ba7f163c4a11628f55a4df523b3ef84604051612a16919061499c565b60405180910390a3612a298484846135c4565b50505050565b612a398282611b74565b612ac857612a5e8173ffffffffffffffffffffffffffffffffffffffff166014613719565b612a6c8360001c6020613719565b604051602001612a7d92919061448f565b6040516020818303038152906040526040517f08c379a0000000000000000000000000000000000000000000000000000000008152600401612abf919061451a565b60405180910390fd5b5050565b612ad68282611b74565b612ba957600160c9600084815260200190815260200160002060000160008373ffffffffffffffffffffffffffffffffffffffff1673ffffffffffffffffffffffffffffffffffffffff16815260200190815260200160002060006101000a81548160ff021916908315150217905550612b4e6125d8565b73ffffffffffffffffffffffffffffffffffffffff168173ffffffffffffffffffffffffffffffffffffffff16837f2f8788117e7eff1d82e926ec794901d17c78024a50270940304540a733656f0d60405160405180910390a45b5050565b612bb78282611b74565b15612c8b57600060c9600084815260200190815260200160002060000160008373ffffffffffffffffffffffffffffffffffffffff1673ffffffffffffffffffffffffffffffffffffffff16815260200190815260200160002060006101000a81548160ff021916908315150217905550612c306125d8565b73ffffffffffffffffffffffffffffffffffffffff168173ffffffffffffffffffffffffffffffffffffffff16837ff6391f5c32d9c69d2a47ea670b442974b53935d1edc7fd64eb21e047a839171b60405160405180910390a45b5050565b612c9761166e565b612cd6576040517f08c379a0000000000000000000000000000000000000000000000000000000008152600401612ccd9061457c565b60405180910390fd5b600060fb60006101000a81548160ff0219169083151502179055507f5db9ee0a495bf2e6ff9c91a7834c1ba4fdd244a5e8aa4e537bd38aeae4b073aa612d1a6125d8565b604051612d2791906144c9565b60405180910390a1565b600073ffffffffffffffffffffffffffffffffffffffff168273ffffffffffffffffffffffffffffffffffffffff161415612da1576040517f08c379a0000000000000000000000000000000000000000000000000000000008152600401612d989061497c565b60405180910390fd5b612dad60008383613315565b8060356000828254612dbf9190614a4f565b9250508190555080603360008473ffffffffffffffffffffffffffffffffffffffff1673ffffffffffffffffffffffffffffffffffffffff1681526020019081526020016000206000828254612e159190614a4f565b925050819055508173ffffffffffffffffffffffffffffffffffffffff16600073ffffffffffffffffffffffffffffffffffffffff167fddf252ad1be2c89b69c2b068fc378daa952ba7f163c4a11628f55a4df523b3ef83604051612e7a919061499c565b60405180910390a3612e8e600083836135c4565b5050565b6000612e9d30613a13565b15905090565b600060019054906101000a900460ff16612ef2576040517f08c379a0000000000000000000000000000000000000000000000000000000008152600401612ee9906148dc565b60405180910390fd5b612efa613a26565b612f02613a77565b565b600060019054906101000a900460ff16612f53576040517f08c379a0000000000000000000000000000000000000000000000000000000008152600401612f4a906148dc565b60405180910390fd5b612f5b613a26565b612f658282613ad8565b5050565b6000612f7483610dfa565b90508160c96000858152602001908152602001600020600101819055508181847fbd79b86ffe0ab8e8776151514217cd7cacd52c909f66475c3af44e129f0b00ff60405160405180910390a4505050565b612fcf8282612acc565b5050565b6000606560009054906101000a900473ffffffffffffffffffffffffffffffffffffffff16905081606560006101000a81548173ffffffffffffffffffffffffffffffffffffffff021916908373ffffffffffffffffffffffffffffffffffffffff1602179055508173ffffffffffffffffffffffffffffffffffffffff168173ffffffffffffffffffffffffffffffffffffffff167f8be0079c531659141344cd1fd0a4f28419497f9722a3daafe3b4186f6b6457e060405160405180910390a35050565b6130a161166e565b156130e1576040517f08c379a00000000000000000000000000000000000000000000000000000000081526004016130d8906146bc565b60405180910390fd5b600160fb60006101000a81548160ff0219169083151502179055507f62e78cea01bee320cd4e420270b5ea74000d11b0c9f74754ebdbfc544b05a2586131256125d8565b60405161313291906144c9565b60405180910390a1565b600073ffffffffffffffffffffffffffffffffffffffff168273ffffffffffffffffffffffffffffffffffffffff1614156131ac576040517f08c379a00000000000000000000000000000000000000000000000000000000081526004016131a39061485c565b60405180910390fd5b6131b882600083613315565b6000603360008473ffffffffffffffffffffffffffffffffffffffff1673ffffffffffffffffffffffffffffffffffffffff1681526020019081526020016000205490508181101561323f576040517f08c379a00000000000000000000000000000000000000000000000000000000081526004016132369061459c565b60405180910390fd5b818103603360008573ffffffffffffffffffffffffffffffffffffffff1673ffffffffffffffffffffffffffffffffffffffff1681526020019081526020016000208190555081603560008282546132979190614aff565b92505081905550600073ffffffffffffffffffffffffffffffffffffffff168373ffffffffffffffffffffffffffffffffffffffff167fddf252ad1be2c89b69c2b068fc378daa952ba7f163c4a11628f55a4df523b3ef846040516132fc919061499c565b60405180910390a3613310836000846135c4565b505050565b61331d61166e565b1561335d576040517f08c379a00000000000000000000000000000000000000000000000000000000081526004016133549061463c565b60405180910390fd5b600081116133a0576040517f08c379a0000000000000000000000000000000000000000000000000000000008152600401613397906145bc565b60405180910390fd5b61016060006133ad6125d8565b73ffffffffffffffffffffffffffffffffffffffff1673ffffffffffffffffffffffffffffffffffffffff16815260200190815260200160002060009054906101000a900460ff1615613435576040517f08c379a000000000000000000000000000000000000000000000000000000000815260040161342c9061475c565b60405180910390fd5b61016060008473ffffffffffffffffffffffffffffffffffffffff1673ffffffffffffffffffffffffffffffffffffffff16815260200190815260200160002060009054906101000a900460ff1615806134bb5750600073ffffffffffffffffffffffffffffffffffffffff168373ffffffffffffffffffffffffffffffffffffffff16145b6134fa576040517f08c379a00000000000000000000000000000000000000000000000000000000081526004016134f19061491c565b60405180910390fd5b61016060008373ffffffffffffffffffffffffffffffffffffffff1673ffffffffffffffffffffffffffffffffffffffff16815260200190815260200160002060009054906101000a900460ff1615806135805750600073ffffffffffffffffffffffffffffffffffffffff168273ffffffffffffffffffffffffffffffffffffffff16145b6135bf576040517f08c379a00000000000000000000000000000000000000000000000000000000081526004016135b6906146fc565b60405180910390fd5b505050565b60008111613607576040517f08c379a00000000000000000000000000000000000000000000000000000000081526004016135fe906145bc565b60405180910390fd5b600073ffffffffffffffffffffffffffffffffffffffff168373ffffffffffffffffffffffffffffffffffffffff16141561368f578173ffffffffffffffffffffffffffffffffffffffff167ff5c174d57843e57fea3c649fdde37f015ef08750759cbee88060390566a9879782604051613682919061499c565b60405180910390a2613714565b600073ffffffffffffffffffffffffffffffffffffffff168273ffffffffffffffffffffffffffffffffffffffff161415613713578273ffffffffffffffffffffffffffffffffffffffff167f1b7e18241beced0d7f41fbab1ea8ed468732edbcb74ec4420151654ca71c8a638260405161370a919061499c565b60405180910390a25b5b505050565b60606000600283600261372c9190614aa5565b6137369190614a4f565b67ffffffffffffffff811115613775577f4e487b7100000000000000000000000000000000000000000000000000000000600052604160045260246000fd5b6040519080825280601f01601f1916602001820160405280156137a75781602001600182028036833780820191505090505b5090507f300000000000000000000000000000000000000000000000000000000000000081600081518110613805577f4e487b7100000000000000000000000000000000000000000000000000000000600052603260045260246000fd5b60200101907effffffffffffffffffffffffffffffffffffffffffffffffffffffffffffff1916908160001a9053507f78000000000000000000000000000000000000000000000000000000000000008160018151811061388f577f4e487b7100000000000000000000000000000000000000000000000000000000600052603260045260246000fd5b60200101907effffffffffffffffffffffffffffffffffffffffffffffffffffffffffffff1916908160001a905350600060018460026138cf9190614aa5565b6138d99190614a4f565b90505b60018111156139c5577f3031323334353637383961626364656600000000000000000000000000000000600f861660108110613941577f4e487b7100000000000000000000000000000000000000000000000000000000600052603260045260246000fd5b1a60f81b82828151811061397e577f4e487b7100000000000000000000000000000000000000000000000000000000600052603260045260246000fd5b60200101907effffffffffffffffffffffffffffffffffffffffffffffffffffffffffffff1916908160001a905350600485901c9450806139be90614c00565b90506138dc565b5060008414613a09576040517f08c379a0000000000000000000000000000000000000000000000000000000008152600401613a009061453c565b60405180910390fd5b8091505092915050565b600080823b905060008111915050919050565b600060019054906101000a900460ff16613a75576040517f08c379a0000000000000000000000000000000000000000000000000000000008152600401613a6c906148dc565b60405180910390fd5b565b600060019054906101000a900460ff16613ac6576040517f08c379a0000000000000000000000000000000000000000000000000000000008152600401613abd906148dc565b60405180910390fd5b613ad6613ad16125d8565b612fd3565b565b600060019054906101000a900460ff16613b27576040517f08c379a0000000000000000000000000000000000000000000000000000000008152600401613b1e906148dc565b60405180910390fd5b8160369080519060200190613b3d929190613b59565b508060379080519060200190613b54929190613b59565b505050565b828054613b6590614c2a565b90600052602060002090601f016020900481019282613b875760008555613bce565b82601f10613ba057805160ff1916838001178555613bce565b82800160010185558215613bce579182015b82811115613bcd578251825591602001919060010190613bb2565b5b509050613bdb9190613bdf565b5090565b5b80821115613bf8576000816000905550600101613be0565b5090565b6000613c0f613c0a846149f7565b6149d2565b905082815260208101848484011115613c2757600080fd5b613c32848285614bbe565b509392505050565b600081359050613c4981615506565b92915050565b600081359050613c5e8161551d565b92915050565b600081359050613c7381615534565b92915050565b600082601f830112613c8a57600080fd5b8135613c9a848260208601613bfc565b91505092915050565b600081359050613cb28161554b565b92915050565b600060208284031215613cca57600080fd5b6000613cd884828501613c3a565b91505092915050565b60008060408385031215613cf457600080fd5b6000613d0285828601613c3a565b9250506020613d1385828601613c3a565b9150509250929050565b600080600060608486031215613d3257600080fd5b6000613d4086828701613c3a565b9350506020613d5186828701613c3a565b9250506040613d6286828701613ca3565b9150509250925092565b60008060408385031215613d7f57600080fd5b6000613d8d85828601613c3a565b9250506020613d9e85828601613ca3565b9150509250929050565b600060208284031215613dba57600080fd5b6000613dc884828501613c4f565b91505092915050565b60008060408385031215613de457600080fd5b6000613df285828601613c4f565b9250506020613e0385828601613c3a565b9150509250929050565b600060208284031215613e1f57600080fd5b6000613e2d84828501613c64565b91505092915050565b60008060408385031215613e4957600080fd5b600083013567ffffffffffffffff811115613e6357600080fd5b613e6f85828601613c79565b925050602083013567ffffffffffffffff811115613e8c57600080fd5b613e9885828601613c79565b9150509250929050565b600060208284031215613eb457600080fd5b6000613ec284828501613ca3565b91505092915050565b613ed481614b33565b82525050565b613ee381614b45565b82525050565b613ef281614b51565b82525050565b6000613f0382614a28565b613f0d8185614a33565b9350613f1d818560208601614bcd565b613f2681614d1a565b840191505092915050565b6000613f3c82614a28565b613f468185614a44565b9350613f56818560208601614bcd565b80840191505092915050565b6000613f6f602083614a33565b9150613f7a82614d2b565b602082019050919050565b6000613f92602383614a33565b9150613f9d82614d54565b604082019050919050565b6000613fb5601483614a33565b9150613fc082614da3565b602082019050919050565b6000613fd8602283614a33565b9150613fe382614dcc565b604082019050919050565b6000613ffb600b83614a33565b915061400682614e1b565b602082019050919050565b600061401e602683614a33565b915061402982614e44565b604082019050919050565b6000614041601583614a33565b915061404c82614e93565b602082019050919050565b6000614064602283614a33565b915061406f82614ebc565b604082019050919050565b6000614087600983614a33565b915061409282614f0b565b602082019050919050565b60006140aa602683614a33565b91506140b582614f34565b604082019050919050565b60006140cd601b83614a33565b91506140d882614f83565b602082019050919050565b60006140f0601a83614a33565b91506140fb82614fac565b602082019050919050565b6000614113601083614a33565b915061411e82614fd5565b602082019050919050565b6000614136601083614a33565b915061414182614ffe565b602082019050919050565b6000614159601483614a33565b915061416482615027565b602082019050919050565b600061417c602e83614a33565b915061418782615050565b604082019050919050565b600061419f601283614a33565b91506141aa8261509f565b602082019050919050565b60006141c2601083614a33565b91506141cd826150c8565b602082019050919050565b60006141e5600c83614a33565b91506141f0826150f1565b602082019050919050565b6000614208601883614a33565b91506142138261511a565b602082019050919050565b600061422b601083614a33565b915061423682615143565b602082019050919050565b600061424e601383614a33565b91506142598261516c565b602082019050919050565b6000614271602883614a33565b915061427c82615195565b604082019050919050565b6000614294602083614a33565b915061429f826151e4565b602082019050919050565b60006142b7601683614a33565b91506142c28261520d565b602082019050919050565b60006142da602183614a33565b91506142e582615236565b604082019050919050565b60006142fd602583614a33565b915061430882615285565b604082019050919050565b6000614320601183614a33565b915061432b826152d4565b602082019050919050565b6000614343602483614a33565b915061434e826152fd565b604082019050919050565b6000614366602b83614a33565b91506143718261534c565b604082019050919050565b6000614389601983614a33565b91506143948261539b565b602082019050919050565b60006143ac601783614a44565b91506143b7826153c4565b601782019050919050565b60006143cf601683614a33565b91506143da826153ed565b602082019050919050565b60006143f2602583614a33565b91506143fd82615416565b604082019050919050565b6000614415601183614a44565b915061442082615465565b601182019050919050565b6000614438602f83614a33565b91506144438261548e565b604082019050919050565b600061445b601f83614a33565b9150614466826154dd565b602082019050919050565b61447a81614ba7565b82525050565b61448981614bb1565b82525050565b600061449a8261439f565b91506144a68285613f31565b91506144b182614408565b91506144bd8284613f31565b91508190509392505050565b60006020820190506144de6000830184613ecb565b92915050565b60006020820190506144f96000830184613eda565b92915050565b60006020820190506145146000830184613ee9565b92915050565b600060208201905081810360008301526145348184613ef8565b905092915050565b6000602082019050818103600083015261455581613f62565b9050919050565b6000602082019050818103600083015261457581613f85565b9050919050565b6000602082019050818103600083015261459581613fa8565b9050919050565b600060208201905081810360008301526145b581613fcb565b9050919050565b600060208201905081810360008301526145d581613fee565b9050919050565b600060208201905081810360008301526145f581614011565b9050919050565b6000602082019050818103600083015261461581614034565b9050919050565b6000602082019050818103600083015261463581614057565b9050919050565b600060208201905081810360008301526146558161407a565b9050919050565b600060208201905081810360008301526146758161409d565b9050919050565b60006020820190508181036000830152614695816140c0565b9050919050565b600060208201905081810360008301526146b5816140e3565b9050919050565b600060208201905081810360008301526146d581614106565b9050919050565b600060208201905081810360008301526146f581614129565b9050919050565b600060208201905081810360008301526147158161414c565b9050919050565b600060208201905081810360008301526147358161416f565b9050919050565b6000602082019050818103600083015261475581614192565b9050919050565b60006020820190508181036000830152614775816141b5565b9050919050565b60006020820190508181036000830152614795816141d8565b9050919050565b600060208201905081810360008301526147b5816141fb565b9050919050565b600060208201905081810360008301526147d58161421e565b9050919050565b600060208201905081810360008301526147f581614241565b9050919050565b6000602082019050818103600083015261481581614264565b9050919050565b6000602082019050818103600083015261483581614287565b9050919050565b60006020820190508181036000830152614855816142aa565b9050919050565b60006020820190508181036000830152614875816142cd565b9050919050565b60006020820190508181036000830152614895816142f0565b9050919050565b600060208201905081810360008301526148b581614313565b9050919050565b600060208201905081810360008301526148d581614336565b9050919050565b600060208201905081810360008301526148f581614359565b9050919050565b600060208201905081810360008301526149158161437c565b9050919050565b60006020820190508181036000830152614935816143c2565b9050919050565b60006020820190508181036000830152614955816143e5565b9050919050565b600060208201905081810360008301526149758161442b565b9050919050565b600060208201905081810360008301526149958161444e565b9050919050565b60006020820190506149b16000830184614471565b92915050565b60006020820190506149cc6000830184614480565b92915050565b60006149dc6149ed565b90506149e88282614c5c565b919050565b6000604051905090565b600067ffffffffffffffff821115614a1257614a11614ceb565b5b614a1b82614d1a565b9050602081019050919050565b600081519050919050565b600082825260208201905092915050565b600081905092915050565b6000614a5a82614ba7565b9150614a6583614ba7565b9250827fffffffffffffffffffffffffffffffffffffffffffffffffffffffffffffffff03821115614a9a57614a99614c8d565b5b828201905092915050565b6000614ab082614ba7565b9150614abb83614ba7565b9250817fffffffffffffffffffffffffffffffffffffffffffffffffffffffffffffffff0483118215151615614af457614af3614c8d565b5b828202905092915050565b6000614b0a82614ba7565b9150614b1583614ba7565b925082821015614b2857614b27614c8d565b5b828203905092915050565b6000614b3e82614b87565b9050919050565b60008115159050919050565b6000819050919050565b60007fffffffff0000000000000000000000000000000000000000000000000000000082169050919050565b600073ffffffffffffffffffffffffffffffffffffffff82169050919050565b6000819050919050565b600060ff82169050919050565b82818337600083830152505050565b60005b83811015614beb578082015181840152602081019050614bd0565b83811115614bfa576000848401525b50505050565b6000614c0b82614ba7565b91506000821415614c1f57614c1e614c8d565b5b600182039050919050565b60006002820490506001821680614c4257607f821691505b60208210811415614c5657614c55614cbc565b5b50919050565b614c6582614d1a565b810181811067ffffffffffffffff82111715614c8457614c83614ceb565b5b80604052505050565b7f4e487b7100000000000000000000000000000000000000000000000000000000600052601160045260246000fd5b7f4e487b7100000000000000000000000000000000000000000000000000000000600052602260045260246000fd5b7f4e487b7100000000000000000000000000000000000000000000000000000000600052604160045260246000fd5b6000601f19601f8301169050919050565b7f537472696e67733a20686578206c656e67746820696e73756666696369656e74600082015250565b7f45524332303a207472616e7366657220746f20746865207a65726f206164647260008201527f6573730000000000000000000000000000000000000000000000000000000000602082015250565b7f5061757361626c653a206e6f7420706175736564000000000000000000000000600082015250565b7f45524332303a206275726e20616d6f756e7420657863656564732062616c616e60008201527f6365000000000000000000000000000000000000000000000000000000000000602082015250565b7f7a65726f20616d6f756e74000000000000000000000000000000000000000000600082015250565b7f4f776e61626c653a206e6577206f776e657220697320746865207a65726f206160008201527f6464726573730000000000000000000000000000000000000000000000000000602082015250565b7f61646472657373206973206e6f742066726f7a656e0000000000000000000000600082015250565b7f45524332303a20617070726f766520746f20746865207a65726f20616464726560008201527f7373000000000000000000000000000000000000000000000000000000000000602082015250565b7f6973207061757365640000000000000000000000000000000000000000000000600082015250565b7f45524332303a207472616e7366657220616d6f756e742065786365656473206260008201527f616c616e63650000000000000000000000000000000000000000000000000000602082015250565b7f6f6e6c7920737570706c7920636f6e74726f6c6c657220726f6c650000000000600082015250565b7f6f6e6c792061737365742070726f74656374696f6e20726f6c65000000000000600082015250565b7f5061757361626c653a2070617573656400000000000000000000000000000000600082015250565b7f6f6e6c79206275726e657220726f6c6500000000000000000000000000000000600082015250565b7f6164647265737320746f2069732066726f7a656e000000000000000000000000600082015250565b7f496e697469616c697a61626c653a20636f6e747261637420697320616c72656160008201527f647920696e697469616c697a6564000000000000000000000000000000000000602082015250565b7f63616e277420667265657a65206f776e65720000000000000000000000000000600082015250565b7f63616c6c65722069732066726f7a656e00000000000000000000000000000000600082015250565b7f7a65726f206163636f756e740000000000000000000000000000000000000000600082015250565b7f6164647265737320616c726561647920756e66726f7a656e0000000000000000600082015250565b7f6f6e6c79206d696e74657220726f6c6500000000000000000000000000000000600082015250565b7f63616e277420667265657a6520697473656c6600000000000000000000000000600082015250565b7f45524332303a207472616e7366657220616d6f756e742065786365656473206160008201527f6c6c6f77616e6365000000000000000000000000000000000000000000000000602082015250565b7f4f776e61626c653a2063616c6c6572206973206e6f7420746865206f776e6572600082015250565b7f6164647265737320616c72656164792066726f7a656e00000000000000000000600082015250565b7f45524332303a206275726e2066726f6d20746865207a65726f2061646472657360008201527f7300000000000000000000000000000000000000000000000000000000000000602082015250565b7f45524332303a207472616e736665722066726f6d20746865207a65726f20616460008201527f6472657373000000000000000000000000000000000000000000000000000000602082015250565b7f6e6f7420656e6f75676820737570706c79000000000000000000000000000000600082015250565b7f45524332303a20617070726f76652066726f6d20746865207a65726f2061646460008201527f7265737300000000000000000000000000000000000000000000000000000000602082015250565b7f496e697469616c697a61626c653a20636f6e7472616374206973206e6f74206960008201527f6e697469616c697a696e67000000000000000000000000000000000000000000602082015250565b7f61646472657373207370656e6465722069732066726f7a656e00000000000000600082015250565b7f416363657373436f6e74726f6c3a206163636f756e7420000000000000000000600082015250565b7f616464726573732066726f6d2069732066726f7a656e00000000000000000000600082015250565b7f45524332303a2064656372656173656420616c6c6f77616e63652062656c6f7760008201527f207a65726f000000000000000000000000000000000000000000000000000000602082015250565b7f206973206d697373696e6720726f6c6520000000000000000000000000000000600082015250565b7f416363657373436f6e74726f6c3a2063616e206f6e6c792072656e6f756e636560008201527f20726f6c657320666f722073656c660000000000000000000000000000000000602082015250565b7f45524332303a206d696e7420746f20746865207a65726f206164647265737300600082015250565b61550f81614b33565b811461551a57600080fd5b50565b61552681614b51565b811461553157600080fd5b50565b61553d81614b5b565b811461554857600080fd5b50565b61555481614ba7565b811461555f57600080fd5b5056fea2646970667358221220baf09d0cf9ff105a636c56ecd1b287f9488fc098dceae184ec353b75b856f4e764736f6c63430008020033",
  "linkReferences": {},
  "deployedLinkReferences": {}
}